{
  "_format": "hh-sol-artifact-1",
  "contractName": "SandglassIridium",
  "sourceName": "contracts/SandglassIridium.sol",
  "abi": [
    {
      "inputs": [
        {
          "internalType": "string",
          "name": "name",
          "type": "string"
        },
        {
          "internalType": "string",
          "name": "symbol",
          "type": "string"
        },
        {
          "internalType": "string",
          "name": "baseTokenURI",
          "type": "string"
        },
        {
          "internalType": "uint256",
          "name": "max",
          "type": "uint256"
        },
        {
          "internalType": "address",
          "name": "admin",
          "type": "address"
        }
      ],
      "stateMutability": "nonpayable",
      "type": "constructor"
    },
    {
      "anonymous": false,
      "inputs": [
        {
          "indexed": true,
          "internalType": "address",
          "name": "owner",
          "type": "address"
        },
        {
          "indexed": true,
          "internalType": "address",
          "name": "approved",
          "type": "address"
        },
        {
          "indexed": true,
          "internalType": "uint256",
          "name": "tokenId",
          "type": "uint256"
        }
      ],
      "name": "Approval",
      "type": "event"
    },
    {
      "anonymous": false,
      "inputs": [
        {
          "indexed": true,
          "internalType": "address",
          "name": "owner",
          "type": "address"
        },
        {
          "indexed": true,
          "internalType": "address",
          "name": "operator",
          "type": "address"
        },
        {
          "indexed": false,
          "internalType": "bool",
          "name": "approved",
          "type": "bool"
        }
      ],
      "name": "ApprovalForAll",
      "type": "event"
    },
    {
      "anonymous": false,
      "inputs": [
        {
          "indexed": true,
          "internalType": "address",
          "name": "previousOwner",
          "type": "address"
        },
        {
          "indexed": true,
          "internalType": "address",
          "name": "newOwner",
          "type": "address"
        }
      ],
      "name": "OwnershipTransferred",
      "type": "event"
    },
    {
      "anonymous": false,
      "inputs": [
        {
          "indexed": true,
          "internalType": "bytes32",
          "name": "role",
          "type": "bytes32"
        },
        {
          "indexed": true,
          "internalType": "bytes32",
          "name": "previousAdminRole",
          "type": "bytes32"
        },
        {
          "indexed": true,
          "internalType": "bytes32",
          "name": "newAdminRole",
          "type": "bytes32"
        }
      ],
      "name": "RoleAdminChanged",
      "type": "event"
    },
    {
      "anonymous": false,
      "inputs": [
        {
          "indexed": true,
          "internalType": "bytes32",
          "name": "role",
          "type": "bytes32"
        },
        {
          "indexed": true,
          "internalType": "address",
          "name": "account",
          "type": "address"
        },
        {
          "indexed": true,
          "internalType": "address",
          "name": "sender",
          "type": "address"
        }
      ],
      "name": "RoleGranted",
      "type": "event"
    },
    {
      "anonymous": false,
      "inputs": [
        {
          "indexed": true,
          "internalType": "bytes32",
          "name": "role",
          "type": "bytes32"
        },
        {
          "indexed": true,
          "internalType": "address",
          "name": "account",
          "type": "address"
        },
        {
          "indexed": true,
          "internalType": "address",
          "name": "sender",
          "type": "address"
        }
      ],
      "name": "RoleRevoked",
      "type": "event"
    },
    {
      "anonymous": false,
      "inputs": [
        {
          "indexed": true,
          "internalType": "address",
          "name": "from",
          "type": "address"
        },
        {
          "indexed": true,
          "internalType": "address",
          "name": "to",
          "type": "address"
        },
        {
          "indexed": true,
          "internalType": "uint256",
          "name": "tokenId",
          "type": "uint256"
        }
      ],
      "name": "Transfer",
      "type": "event"
    },
    {
      "inputs": [],
      "name": "DEFAULT_ADMIN_ROLE",
      "outputs": [
        {
          "internalType": "bytes32",
          "name": "",
          "type": "bytes32"
        }
      ],
      "stateMutability": "view",
      "type": "function"
    },
    {
      "inputs": [],
      "name": "_tokenIdTracker",
      "outputs": [
        {
          "internalType": "uint256",
          "name": "_value",
          "type": "uint256"
        }
      ],
      "stateMutability": "view",
      "type": "function"
    },
    {
      "inputs": [
        {
          "internalType": "address",
          "name": "to",
          "type": "address"
        },
        {
          "internalType": "uint256",
          "name": "tokenId",
          "type": "uint256"
        }
      ],
      "name": "approve",
      "outputs": [],
      "stateMutability": "nonpayable",
      "type": "function"
    },
    {
      "inputs": [
        {
          "internalType": "address",
          "name": "owner",
          "type": "address"
        }
      ],
      "name": "balanceOf",
      "outputs": [
        {
          "internalType": "uint256",
          "name": "",
          "type": "uint256"
        }
      ],
      "stateMutability": "view",
      "type": "function"
    },
    {
      "inputs": [
        {
          "internalType": "uint256",
          "name": "_salePrice",
          "type": "uint256"
        }
      ],
      "name": "calculateRoyalty",
      "outputs": [
        {
          "internalType": "uint256",
          "name": "",
          "type": "uint256"
        }
      ],
      "stateMutability": "view",
      "type": "function"
    },
    {
      "inputs": [
        {
          "internalType": "uint256",
          "name": "tokenId",
          "type": "uint256"
        }
      ],
      "name": "getApproved",
      "outputs": [
        {
          "internalType": "address",
          "name": "",
          "type": "address"
        }
      ],
      "stateMutability": "view",
      "type": "function"
    },
    {
      "inputs": [
        {
          "internalType": "bytes32",
          "name": "role",
          "type": "bytes32"
        }
      ],
      "name": "getRoleAdmin",
      "outputs": [
        {
          "internalType": "bytes32",
          "name": "",
          "type": "bytes32"
        }
      ],
      "stateMutability": "view",
      "type": "function"
    },
    {
      "inputs": [
        {
          "internalType": "bytes32",
          "name": "role",
          "type": "bytes32"
        },
        {
          "internalType": "uint256",
          "name": "index",
          "type": "uint256"
        }
      ],
      "name": "getRoleMember",
      "outputs": [
        {
          "internalType": "address",
          "name": "",
          "type": "address"
        }
      ],
      "stateMutability": "view",
      "type": "function"
    },
    {
      "inputs": [
        {
          "internalType": "bytes32",
          "name": "role",
          "type": "bytes32"
        }
      ],
      "name": "getRoleMemberCount",
      "outputs": [
        {
          "internalType": "uint256",
          "name": "",
          "type": "uint256"
        }
      ],
      "stateMutability": "view",
      "type": "function"
    },
    {
      "inputs": [
        {
          "internalType": "bytes32",
          "name": "role",
          "type": "bytes32"
        },
        {
          "internalType": "address",
          "name": "account",
          "type": "address"
        }
      ],
      "name": "grantRole",
      "outputs": [],
      "stateMutability": "nonpayable",
      "type": "function"
    },
    {
      "inputs": [
        {
          "internalType": "bytes32",
          "name": "role",
          "type": "bytes32"
        },
        {
          "internalType": "address",
          "name": "account",
          "type": "address"
        }
      ],
      "name": "hasRole",
      "outputs": [
        {
          "internalType": "bool",
          "name": "",
          "type": "bool"
        }
      ],
      "stateMutability": "view",
      "type": "function"
    },
    {
      "inputs": [
        {
          "internalType": "address",
          "name": "owner",
          "type": "address"
        },
        {
          "internalType": "address",
          "name": "operator",
          "type": "address"
        }
      ],
      "name": "isApprovedForAll",
      "outputs": [
        {
          "internalType": "bool",
          "name": "",
          "type": "bool"
        }
      ],
      "stateMutability": "view",
      "type": "function"
    },
    {
      "inputs": [
        {
          "internalType": "uint256",
          "name": "amount",
          "type": "uint256"
        }
      ],
      "name": "mint",
      "outputs": [],
      "stateMutability": "payable",
      "type": "function"
    },
    {
      "inputs": [
        {
          "internalType": "uint256",
          "name": "",
          "type": "uint256"
        }
      ],
      "name": "minter",
      "outputs": [
        {
          "internalType": "address",
          "name": "",
          "type": "address"
        }
      ],
      "stateMutability": "view",
      "type": "function"
    },
    {
      "inputs": [],
      "name": "name",
      "outputs": [
        {
          "internalType": "string",
          "name": "",
          "type": "string"
        }
      ],
      "stateMutability": "view",
      "type": "function"
    },
    {
      "inputs": [],
      "name": "owner",
      "outputs": [
        {
          "internalType": "address",
          "name": "",
          "type": "address"
        }
      ],
      "stateMutability": "view",
      "type": "function"
    },
    {
      "inputs": [
        {
          "internalType": "uint256",
          "name": "tokenId",
          "type": "uint256"
        }
      ],
      "name": "ownerOf",
      "outputs": [
        {
          "internalType": "address",
          "name": "",
          "type": "address"
        }
      ],
      "stateMutability": "view",
      "type": "function"
    },
    {
      "inputs": [],
      "name": "price",
      "outputs": [
        {
          "internalType": "uint256",
          "name": "",
          "type": "uint256"
        }
      ],
      "stateMutability": "view",
      "type": "function"
    },
    {
      "inputs": [],
      "name": "renounceOwnership",
      "outputs": [],
      "stateMutability": "nonpayable",
      "type": "function"
    },
    {
      "inputs": [
        {
          "internalType": "bytes32",
          "name": "role",
          "type": "bytes32"
        },
        {
          "internalType": "address",
          "name": "account",
          "type": "address"
        }
      ],
      "name": "renounceRole",
      "outputs": [],
      "stateMutability": "nonpayable",
      "type": "function"
    },
    {
      "inputs": [
        {
          "internalType": "bytes32",
          "name": "role",
          "type": "bytes32"
        },
        {
          "internalType": "address",
          "name": "account",
          "type": "address"
        }
      ],
      "name": "revokeRole",
      "outputs": [],
      "stateMutability": "nonpayable",
      "type": "function"
    },
    {
      "inputs": [
        {
          "internalType": "uint256",
          "name": "_tokenId",
          "type": "uint256"
        },
        {
          "internalType": "uint256",
          "name": "_salePrice",
          "type": "uint256"
        }
      ],
      "name": "royaltyInfo",
      "outputs": [
        {
          "internalType": "address",
          "name": "receiver",
          "type": "address"
        },
        {
          "internalType": "uint256",
          "name": "royaltyAmount",
          "type": "uint256"
        }
      ],
      "stateMutability": "view",
      "type": "function"
    },
    {
      "inputs": [
        {
          "internalType": "address",
          "name": "from",
          "type": "address"
        },
        {
          "internalType": "address",
          "name": "to",
          "type": "address"
        },
        {
          "internalType": "uint256",
          "name": "tokenId",
          "type": "uint256"
        }
      ],
      "name": "safeTransferFrom",
      "outputs": [],
      "stateMutability": "nonpayable",
      "type": "function"
    },
    {
      "inputs": [
        {
          "internalType": "address",
          "name": "from",
          "type": "address"
        },
        {
          "internalType": "address",
          "name": "to",
          "type": "address"
        },
        {
          "internalType": "uint256",
          "name": "tokenId",
          "type": "uint256"
        },
        {
          "internalType": "bytes",
          "name": "_data",
          "type": "bytes"
        }
      ],
      "name": "safeTransferFrom",
      "outputs": [],
      "stateMutability": "nonpayable",
      "type": "function"
    },
    {
      "inputs": [
        {
          "internalType": "address",
          "name": "operator",
          "type": "address"
        },
        {
          "internalType": "bool",
          "name": "approved",
          "type": "bool"
        }
      ],
      "name": "setApprovalForAll",
      "outputs": [],
      "stateMutability": "nonpayable",
      "type": "function"
    },
    {
      "inputs": [
        {
          "internalType": "string",
          "name": "baseURI",
          "type": "string"
        }
      ],
      "name": "setBaseURI",
      "outputs": [],
      "stateMutability": "nonpayable",
      "type": "function"
    },
    {
      "inputs": [
        {
          "internalType": "uint256",
          "name": "mintPrice",
          "type": "uint256"
        }
      ],
      "name": "setPrice",
      "outputs": [],
      "stateMutability": "nonpayable",
      "type": "function"
    },
    {
      "inputs": [
        {
          "internalType": "address",
          "name": "_reciever",
          "type": "address"
        },
        {
          "internalType": "uint96",
          "name": "_royaltyFee",
          "type": "uint96"
        }
      ],
      "name": "setRoyalty",
      "outputs": [],
      "stateMutability": "nonpayable",
      "type": "function"
    },
    {
      "inputs": [
        {
          "internalType": "uint256",
          "name": "tokenId",
          "type": "uint256"
        },
        {
          "internalType": "string",
          "name": "_tokenURI",
          "type": "string"
        }
      ],
      "name": "setTokenURI",
      "outputs": [],
      "stateMutability": "nonpayable",
      "type": "function"
    },
    {
      "inputs": [
        {
          "internalType": "uint256",
          "name": "",
          "type": "uint256"
        }
      ],
      "name": "skipToken",
      "outputs": [
        {
          "internalType": "bool",
          "name": "",
          "type": "bool"
        }
      ],
      "stateMutability": "view",
      "type": "function"
    },
    {
      "inputs": [
        {
          "internalType": "bytes4",
          "name": "interfaceId",
          "type": "bytes4"
        }
      ],
      "name": "supportsInterface",
      "outputs": [
        {
          "internalType": "bool",
          "name": "",
          "type": "bool"
        }
      ],
      "stateMutability": "view",
      "type": "function"
    },
    {
      "inputs": [],
      "name": "symbol",
      "outputs": [
        {
          "internalType": "string",
          "name": "",
          "type": "string"
        }
      ],
      "stateMutability": "view",
      "type": "function"
    },
    {
      "inputs": [
        {
          "internalType": "uint256",
          "name": "index",
          "type": "uint256"
        }
      ],
      "name": "tokenByIndex",
      "outputs": [
        {
          "internalType": "uint256",
          "name": "",
          "type": "uint256"
        }
      ],
      "stateMutability": "view",
      "type": "function"
    },
    {
      "inputs": [
        {
          "internalType": "uint256",
          "name": "tokenId",
          "type": "uint256"
        }
      ],
      "name": "tokenMinter",
      "outputs": [
        {
          "internalType": "address",
          "name": "",
          "type": "address"
        }
      ],
      "stateMutability": "view",
      "type": "function"
    },
    {
      "inputs": [
        {
          "internalType": "address",
          "name": "owner",
          "type": "address"
        },
        {
          "internalType": "uint256",
          "name": "index",
          "type": "uint256"
        }
      ],
      "name": "tokenOfOwnerByIndex",
      "outputs": [
        {
          "internalType": "uint256",
          "name": "",
          "type": "uint256"
        }
      ],
      "stateMutability": "view",
      "type": "function"
    },
    {
      "inputs": [
        {
          "internalType": "uint256",
          "name": "tokenId",
          "type": "uint256"
        }
      ],
      "name": "tokenURI",
      "outputs": [
        {
          "internalType": "string",
          "name": "",
          "type": "string"
        }
      ],
      "stateMutability": "view",
      "type": "function"
    },
    {
      "inputs": [],
      "name": "totalSupply",
      "outputs": [
        {
          "internalType": "uint256",
          "name": "",
          "type": "uint256"
        }
      ],
      "stateMutability": "view",
      "type": "function"
    },
    {
      "inputs": [
        {
          "internalType": "address",
          "name": "from",
          "type": "address"
        },
        {
          "internalType": "address",
          "name": "to",
          "type": "address"
        },
        {
          "internalType": "uint256",
          "name": "tokenId",
          "type": "uint256"
        }
      ],
      "name": "transferFrom",
      "outputs": [],
      "stateMutability": "nonpayable",
      "type": "function"
    },
    {
      "inputs": [
        {
          "internalType": "address",
          "name": "newOwner",
          "type": "address"
        }
      ],
      "name": "transferOwnership",
      "outputs": [],
      "stateMutability": "nonpayable",
      "type": "function"
    },
    {
      "inputs": [
        {
          "internalType": "address",
          "name": "_owner",
          "type": "address"
        }
      ],
      "name": "walletOfOwner",
      "outputs": [
        {
          "internalType": "uint256[]",
          "name": "",
          "type": "uint256[]"
        }
      ],
      "stateMutability": "view",
      "type": "function"
    },
    {
      "inputs": [
        {
          "internalType": "address",
          "name": "_recipient",
          "type": "address"
        }
      ],
      "name": "withdraw",
      "outputs": [],
      "stateMutability": "payable",
      "type": "function"
    }
  ],
  "bytecode": "0x60806040523480156200001157600080fd5b50604051620072c4380380620072c483398181016040528101906200003791906200150f565b8484816002908051906020019062000051929190620013bf565b5080600390805190602001906200006a929190620013bf565b5050506200008d620000816200057d60201b60201c565b6200058560201b60201c565b82600f9080519060200190620000a5929190620013bf565b50670214e8348c4f00006010819055508160118190555080601260006101000a81548173ffffffffffffffffffffffffffffffffffffffff021916908373ffffffffffffffffffffffffffffffffffffffff16021790555080601360006101000a81548173ffffffffffffffffffffffffffffffffffffffff021916908373ffffffffffffffffffffffffffffffffffffffff16021790555062000155600e6200064b60201b62001de91760201c565b6200016a6000801b826200066160201b60201c565b6101f4601360146101000a8154816bffffffffffffffffffffffff02191690836bffffffffffffffffffffffff1602179055506001601560006023815260200190815260200160002060006101000a81548160ff02191690831515021790555060016015600061015e815260200190815260200160002060006101000a81548160ff02191690831515021790555060016015600061015f815260200190815260200160002060006101000a81548160ff021916908315150217905550600160156000610160815260200190815260200160002060006101000a81548160ff021916908315150217905550600160156000610161815260200190815260200160002060006101000a81548160ff021916908315150217905550600160156000610162815260200190815260200160002060006101000a81548160ff021916908315150217905550600160156000610162815260200190815260200160002060006101000a81548160ff02191690831515021790555060016015600060bb815260200190815260200160002060006101000a81548160ff02191690831515021790555060016015600060cb815260200190815260200160002060006101000a81548160ff021916908315150217905550600160156000610132815260200190815260200160002060006101000a81548160ff021916908315150217905550600160156000610154815260200190815260200160002060006101000a81548160ff021916908315150217905550600160156000610155815260200190815260200160002060006101000a81548160ff021916908315150217905550600160156000610156815260200190815260200160002060006101000a81548160ff021916908315150217905550600160156000610157815260200190815260200160002060006101000a81548160ff021916908315150217905550600160156000610159815260200190815260200160002060006101000a81548160ff02191690831515021790555060016015600061017b815260200190815260200160002060006101000a81548160ff021916908315150217905550600160156000610205815260200190815260200160002060006101000a81548160ff02191690831515021790555060016015600061024f815260200190815260200160002060006101000a81548160ff021916908315150217905550600160156000610268815260200190815260200160002060006101000a81548160ff021916908315150217905550600160156000610293815260200190815260200160002060006101000a81548160ff0219169083151502179055506001601560006102e9815260200190815260200160002060006101000a81548160ff02191690831515021790555062000572600c620006a960201b60201c565b505050505062001bd0565b600033905090565b6000600d60009054906101000a900473ffffffffffffffffffffffffffffffffffffffff16905081600d60006101000a81548173ffffffffffffffffffffffffffffffffffffffff021916908373ffffffffffffffffffffffffffffffffffffffff1602179055508173ffffffffffffffffffffffffffffffffffffffff168173ffffffffffffffffffffffffffffffffffffffff167f8be0079c531659141344cd1fd0a4f28419497f9722a3daafe3b4186f6b6457e060405160405180910390a35050565b6001816000016000828254019250508190555050565b6200067882826200093160201b62001dff1760201c565b620006a481600160008581526020019081526020016000206200094760201b62001e0d1790919060201c565b505050565b620006b96200097f60201b60201c565b73ffffffffffffffffffffffffffffffffffffffff163373ffffffffffffffffffffffffffffffffffffffff1614620007ac5780601054620006fc91906200197b565b341462000740576040517f08c379a0000000000000000000000000000000000000000000000000000000008152600401620007379062001862565b60405180910390fd5b601154816200075b600e620009a960201b62001e3d1760201c565b6200076791906200191e565b1115620007ab576040517f08c379a0000000000000000000000000000000000000000000000000000000008152600401620007a290620017da565b60405180910390fd5b5b60148110620007f2576040517f08c379a0000000000000000000000000000000000000000000000000000000008152600401620007e99062001884565b60405180910390fd5b60005b818110156200092d5760011515601560006200081d600e620009a960201b62001e3d1760201c565b815260200190815260200160002060009054906101000a900460ff16151514156200086f5762000859600e6200064b60201b62001de91760201c565b8180620008669062001ac1565b92505062000917565b62000897336200088b600e620009a960201b62001e3d1760201c565b620009b760201b60201c565b3360146000620008b3600e620009a960201b62001e3d1760201c565b815260200190815260200160002060006101000a81548173ffffffffffffffffffffffffffffffffffffffff021916908373ffffffffffffffffffffffffffffffffffffffff16021790555062000916600e6200064b60201b62001de91760201c565b5b8080620009249062001ac1565b915050620007f5565b5050565b62000943828262000b9d60201b60201c565b5050565b600062000977836000018373ffffffffffffffffffffffffffffffffffffffff1660001b62000c8e60201b60201c565b905092915050565b6000600d60009054906101000a900473ffffffffffffffffffffffffffffffffffffffff16905090565b600081600001549050919050565b600073ffffffffffffffffffffffffffffffffffffffff168273ffffffffffffffffffffffffffffffffffffffff16141562000a2a576040517f08c379a000000000000000000000000000000000000000000000000000000000815260040162000a219062001840565b60405180910390fd5b62000a3b8162000d0860201b60201c565b1562000a7e576040517f08c379a000000000000000000000000000000000000000000000000000000000815260040162000a7590620017fc565b60405180910390fd5b62000a926000838362000d7460201b60201c565b6001600560008473ffffffffffffffffffffffffffffffffffffffff1673ffffffffffffffffffffffffffffffffffffffff168152602001908152602001600020600082825462000ae491906200191e565b92505081905550816004600083815260200190815260200160002060006101000a81548173ffffffffffffffffffffffffffffffffffffffff021916908373ffffffffffffffffffffffffffffffffffffffff160217905550808273ffffffffffffffffffffffffffffffffffffffff16600073ffffffffffffffffffffffffffffffffffffffff167fddf252ad1be2c89b69c2b068fc378daa952ba7f163c4a11628f55a4df523b3ef60405160405180910390a45050565b62000baf828262000d9160201b60201c565b62000c8a57600160008084815260200190815260200160002060000160008373ffffffffffffffffffffffffffffffffffffffff1673ffffffffffffffffffffffffffffffffffffffff16815260200190815260200160002060006101000a81548160ff02191690831515021790555062000c2f6200057d60201b60201c565b73ffffffffffffffffffffffffffffffffffffffff168173ffffffffffffffffffffffffffffffffffffffff16837f2f8788117e7eff1d82e926ec794901d17c78024a50270940304540a733656f0d60405160405180910390a45b5050565b600062000ca2838362000dfb60201b60201c565b62000cfd57826000018290806001815401808255809150506001900390600052602060002001600090919091909150558260000180549050836001016000848152602001908152602001600020819055506001905062000d02565b600090505b92915050565b60008073ffffffffffffffffffffffffffffffffffffffff166004600084815260200190815260200160002060009054906101000a900473ffffffffffffffffffffffffffffffffffffffff1673ffffffffffffffffffffffffffffffffffffffff1614159050919050565b62000d8c83838362000e1e60201b62001e4b1760201c565b505050565b600080600084815260200190815260200160002060000160008373ffffffffffffffffffffffffffffffffffffffff1673ffffffffffffffffffffffffffffffffffffffff16815260200190815260200160002060009054906101000a900460ff16905092915050565b600080836001016000848152602001908152602001600020541415905092915050565b62000e3683838362000f6560201b62001f5f1760201c565b600073ffffffffffffffffffffffffffffffffffffffff168373ffffffffffffffffffffffffffffffffffffffff16141562000e835762000e7d8162000f6a60201b60201c565b62000ecb565b8173ffffffffffffffffffffffffffffffffffffffff168373ffffffffffffffffffffffffffffffffffffffff161462000eca5762000ec9838262000fb360201b60201c565b5b5b600073ffffffffffffffffffffffffffffffffffffffff168273ffffffffffffffffffffffffffffffffffffffff16141562000f185762000f12816200113060201b60201c565b62000f60565b8273ffffffffffffffffffffffffffffffffffffffff168273ffffffffffffffffffffffffffffffffffffffff161462000f5f5762000f5e82826200127860201b60201c565b5b5b505050565b505050565b600a80549050600b600083815260200190815260200160002081905550600a81908060018154018082558091505060019003906000526020600020016000909190919091505550565b6000600162000fcd846200130460201b620012d51760201c565b62000fd99190620019dc565b9050600060096000848152602001908152602001600020549050818114620010bf576000600860008673ffffffffffffffffffffffffffffffffffffffff1673ffffffffffffffffffffffffffffffffffffffff168152602001908152602001600020600084815260200190815260200160002054905080600860008773ffffffffffffffffffffffffffffffffffffffff1673ffffffffffffffffffffffffffffffffffffffff168152602001908152602001600020600084815260200190815260200160002081905550816009600083815260200190815260200160002081905550505b6009600084815260200190815260200160002060009055600860008573ffffffffffffffffffffffffffffffffffffffff1673ffffffffffffffffffffffffffffffffffffffff16815260200190815260200160002060008381526020019081526020016000206000905550505050565b60006001600a80549050620011469190620019dc565b90506000600b60008481526020019081526020016000205490506000600a83815481106200119d577f4e487b7100000000000000000000000000000000000000000000000000000000600052603260045260246000fd5b9060005260206000200154905080600a8381548110620011e6577f4e487b7100000000000000000000000000000000000000000000000000000000600052603260045260246000fd5b906000526020600020018190555081600b600083815260200190815260200160002081905550600b600085815260200190815260200160002060009055600a8054806200125c577f4e487b7100000000000000000000000000000000000000000000000000000000600052603160045260246000fd5b6001900381819060005260206000200160009055905550505050565b600062001290836200130460201b620012d51760201c565b905081600860008573ffffffffffffffffffffffffffffffffffffffff1673ffffffffffffffffffffffffffffffffffffffff168152602001908152602001600020600083815260200190815260200160002081905550806009600084815260200190815260200160002081905550505050565b60008073ffffffffffffffffffffffffffffffffffffffff168273ffffffffffffffffffffffffffffffffffffffff16141562001378576040517f08c379a00000000000000000000000000000000000000000000000000000000081526004016200136f906200181e565b60405180910390fd5b600560008373ffffffffffffffffffffffffffffffffffffffff1673ffffffffffffffffffffffffffffffffffffffff168152602001908152602001600020549050919050565b828054620013cd9062001a8b565b90600052602060002090601f016020900481019282620013f157600085556200143d565b82601f106200140c57805160ff19168380011785556200143d565b828001600101855582156200143d579182015b828111156200143c5782518255916020019190600101906200141f565b5b5090506200144c919062001450565b5090565b5b808211156200146b57600081600090555060010162001451565b5090565b6000620014866200148084620018da565b620018a6565b9050828152602081018484840111156200149f57600080fd5b620014ac84828562001a55565b509392505050565b600081519050620014c58162001b9c565b92915050565b600082601f830112620014dd57600080fd5b8151620014ef8482602086016200146f565b91505092915050565b600081519050620015098162001bb6565b92915050565b600080600080600060a086880312156200152857600080fd5b600086015167ffffffffffffffff8111156200154357600080fd5b6200155188828901620014cb565b955050602086015167ffffffffffffffff8111156200156f57600080fd5b6200157d88828901620014cb565b945050604086015167ffffffffffffffff8111156200159b57600080fd5b620015a988828901620014cb565b9350506060620015bc88828901620014f8565b9250506080620015cf88828901620014b4565b9150509295509295909350565b6000620015eb602b836200190d565b91507f4e6f7420656e6f75676820746f6b656e73206c65667420746f206d696e74207460008301527f68697320616d6f756e742e0000000000000000000000000000000000000000006020830152604082019050919050565b600062001653601c836200190d565b91507f4552433732313a20746f6b656e20616c7265616479206d696e746564000000006000830152602082019050919050565b600062001695602a836200190d565b91507f4552433732313a2062616c616e636520717565727920666f7220746865207a6560008301527f726f2061646472657373000000000000000000000000000000000000000000006020830152604082019050919050565b6000620016fd6020836200190d565b91507f4552433732313a206d696e7420746f20746865207a65726f20616464726573736000830152602082019050919050565b60006200173f6022836200190d565b91507f4e6f7420656e6f756768206176617820696e2077616c6c657420746f206d696e60008301527f742e0000000000000000000000000000000000000000000000000000000000006020830152604082019050919050565b6000620017a7601f836200190d565b91507f4f6e6c792032302063616e206265206d696e74656420617420612074696d65006000830152602082019050919050565b60006020820190508181036000830152620017f581620015dc565b9050919050565b60006020820190508181036000830152620018178162001644565b9050919050565b60006020820190508181036000830152620018398162001686565b9050919050565b600060208201905081810360008301526200185b81620016ee565b9050919050565b600060208201905081810360008301526200187d8162001730565b9050919050565b600060208201905081810360008301526200189f8162001798565b9050919050565b6000604051905081810181811067ffffffffffffffff82111715620018d057620018cf62001b6d565b5b8060405250919050565b600067ffffffffffffffff821115620018f857620018f762001b6d565b5b601f19601f8301169050602081019050919050565b600082825260208201905092915050565b60006200192b8262001a4b565b9150620019388362001a4b565b9250827fffffffffffffffffffffffffffffffffffffffffffffffffffffffffffffffff0382111562001970576200196f62001b0f565b5b828201905092915050565b6000620019888262001a4b565b9150620019958362001a4b565b9250817fffffffffffffffffffffffffffffffffffffffffffffffffffffffffffffffff0483118215151615620019d157620019d062001b0f565b5b828202905092915050565b6000620019e98262001a4b565b9150620019f68362001a4b565b92508282101562001a0c5762001a0b62001b0f565b5b828203905092915050565b600062001a248262001a2b565b9050919050565b600073ffffffffffffffffffffffffffffffffffffffff82169050919050565b6000819050919050565b60005b8381101562001a7557808201518184015260208101905062001a58565b8381111562001a85576000848401525b50505050565b6000600282049050600182168062001aa457607f821691505b6020821081141562001abb5762001aba62001b3e565b5b50919050565b600062001ace8262001a4b565b91507fffffffffffffffffffffffffffffffffffffffffffffffffffffffffffffffff82141562001b045762001b0362001b0f565b5b600182019050919050565b7f4e487b7100000000000000000000000000000000000000000000000000000000600052601160045260246000fd5b7f4e487b7100000000000000000000000000000000000000000000000000000000600052602260045260246000fd5b7f4e487b7100000000000000000000000000000000000000000000000000000000600052604160045260246000fd5b62001ba78162001a17565b811462001bb357600080fd5b50565b62001bc18162001a4b565b811462001bcd57600080fd5b50565b6156e48062001be06000396000f3fe6080604052600436106102465760003560e01c8063715018a611610139578063a0712d68116100b6578063b88d4fde1161007a578063b88d4fde146108f5578063c87b56dd1461091e578063ca15c8731461095b578063d547741f14610998578063e985e9c5146109c1578063f2fde38b146109fe57610246565b8063a0712d681461080b578063a217fddf14610827578063a22cb46514610852578063a2e696131461087b578063ac8d856c146108b857610246565b806391b7f5ed116100fd57806391b7f5ed1461072457806391d148541461074d57806395d89b411461078a57806398bcede9146107b5578063a035b1fe146107e057610246565b8063715018a61461063f5780637c57d947146106565780638da5cb5b146106935780638f2fc60b146106be5780639010d07c146106e757610246565b80632f745c59116101c757806351cff8d91161018b57806351cff8d91461054357806355f804b31461055f5780635684627a146105885780636352211e146105c557806370a082311461060257610246565b80632f745c591461043a57806336568abe1461047757806342842e0e146104a0578063438b6300146104c95780634f6ccce71461050657610246565b806318160ddd1161020e57806318160ddd1461034257806323b872dd1461036d578063248a9ca3146103965780632a55205a146103d35780632f2ff15d1461041157610246565b806301ffc9a71461024b57806306fdde0314610288578063081812fc146102b3578063095ea7b3146102f0578063162094c414610319575b600080fd5b34801561025757600080fd5b50610272600480360381019061026d9190613eeb565b610a27565b60405161027f9190614d94565b60405180910390f35b34801561029457600080fd5b5061029d610a69565b6040516102aa9190614dca565b60405180910390f35b3480156102bf57600080fd5b506102da60048036038101906102d59190613f7e565b610afb565b6040516102e79190614ce2565b60405180910390f35b3480156102fc57600080fd5b5061031760048036038101906103129190613dd2565b610b80565b005b34801561032557600080fd5b50610340600480360381019061033b9190613fa7565b610c98565b005b34801561034e57600080fd5b50610357610cf9565b604051610364919061516c565b60405180910390f35b34801561037957600080fd5b50610394600480360381019061038f9190613ccc565b610d06565b005b3480156103a257600080fd5b506103bd60048036038101906103b89190613e4a565b610d66565b6040516103ca9190614daf565b60405180910390f35b3480156103df57600080fd5b506103fa60048036038101906103f59190613ffb565b610d85565b604051610408929190614d49565b60405180910390f35b34801561041d57600080fd5b5061043860048036038101906104339190613e73565b610dbf565b005b34801561044657600080fd5b50610461600480360381019061045c9190613dd2565b610df3565b60405161046e919061516c565b60405180910390f35b34801561048357600080fd5b5061049e60048036038101906104999190613e73565b610e98565b005b3480156104ac57600080fd5b506104c760048036038101906104c29190613ccc565b610ecc565b005b3480156104d557600080fd5b506104f060048036038101906104eb9190613c67565b610eec565b6040516104fd9190614d72565b60405180910390f35b34801561051257600080fd5b5061052d60048036038101906105289190613f7e565b610fe6565b60405161053a919061516c565b60405180910390f35b61055d60048036038101906105589190613c67565b61107d565b005b34801561056b57600080fd5b5061058660048036038101906105819190613f3d565b611196565b005b34801561059457600080fd5b506105af60048036038101906105aa9190613f7e565b611203565b6040516105bc9190614d94565b60405180910390f35b3480156105d157600080fd5b506105ec60048036038101906105e79190613f7e565b611223565b6040516105f99190614ce2565b60405180910390f35b34801561060e57600080fd5b5061062960048036038101906106249190613c67565b6112d5565b604051610636919061516c565b60405180910390f35b34801561064b57600080fd5b5061065461138d565b005b34801561066257600080fd5b5061067d60048036038101906106789190613f7e565b611415565b60405161068a9190614ce2565b60405180910390f35b34801561069f57600080fd5b506106a8611452565b6040516106b59190614ce2565b60405180910390f35b3480156106ca57600080fd5b506106e560048036038101906106e09190613e0e565b61147c565b005b3480156106f357600080fd5b5061070e60048036038101906107099190613eaf565b611545565b60405161071b9190614ce2565b60405180910390f35b34801561073057600080fd5b5061074b60048036038101906107469190613f7e565b611574565b005b34801561075957600080fd5b50610774600480360381019061076f9190613e73565b6115d1565b6040516107819190614d94565b60405180910390f35b34801561079657600080fd5b5061079f61163b565b6040516107ac9190614dca565b60405180910390f35b3480156107c157600080fd5b506107ca6116cd565b6040516107d7919061516c565b60405180910390f35b3480156107ec57600080fd5b506107f56116d9565b604051610802919061516c565b60405180910390f35b61082560048036038101906108209190613f7e565b6116e3565b005b34801561083357600080fd5b5061083c6118f7565b6040516108499190614daf565b60405180910390f35b34801561085e57600080fd5b5061087960048036038101906108749190613d96565b6118fe565b005b34801561088757600080fd5b506108a2600480360381019061089d9190613f7e565b611a7f565b6040516108af919061516c565b60405180910390f35b3480156108c457600080fd5b506108df60048036038101906108da9190613f7e565b611ac9565b6040516108ec9190614ce2565b60405180910390f35b34801561090157600080fd5b5061091c60048036038101906109179190613d1b565b611afc565b005b34801561092a57600080fd5b5061094560048036038101906109409190613f7e565b611b5e565b6040516109529190614dca565b60405180910390f35b34801561096757600080fd5b50610982600480360381019061097d9190613e4a565b611c05565b60405161098f919061516c565b60405180910390f35b3480156109a457600080fd5b506109bf60048036038101906109ba9190613e73565b611c29565b005b3480156109cd57600080fd5b506109e860048036038101906109e39190613c90565b611c5d565b6040516109f59190614d94565b60405180910390f35b348015610a0a57600080fd5b50610a256004803603810190610a209190613c67565b611cf1565b005b6000632a55205a60e01b827bffffffffffffffffffffffffffffffffffffffffffffffffffffffff19161480610a625750610a6182611f64565b5b9050919050565b606060028054610a78906154ab565b80601f0160208091040260200160405190810160405280929190818152602001828054610aa4906154ab565b8015610af15780601f10610ac657610100808354040283529160200191610af1565b820191906000526020600020905b815481529060010190602001808311610ad457829003601f168201915b5050505050905090565b6000610b0682611fde565b610b45576040517f08c379a0000000000000000000000000000000000000000000000000000000008152600401610b3c90614fec565b60405180910390fd5b6006600083815260200190815260200160002060009054906101000a900473ffffffffffffffffffffffffffffffffffffffff169050919050565b6000610b8b82611223565b90508073ffffffffffffffffffffffffffffffffffffffff168373ffffffffffffffffffffffffffffffffffffffff161415610bfc576040517f08c379a0000000000000000000000000000000000000000000000000000000008152600401610bf39061506c565b60405180910390fd5b8073ffffffffffffffffffffffffffffffffffffffff16610c1b61204a565b73ffffffffffffffffffffffffffffffffffffffff161480610c4a5750610c4981610c4461204a565b611c5d565b5b610c89576040517f08c379a0000000000000000000000000000000000000000000000000000000008152600401610c8090614f4c565b60405180910390fd5b610c938383612052565b505050565b610cac6000801b610ca761204a565b6115d1565b610ceb576040517f08c379a0000000000000000000000000000000000000000000000000000000008152600401610ce290614f0c565b60405180910390fd5b610cf5828261210b565b5050565b6000600a80549050905090565b610d17610d1161204a565b8261217f565b610d56576040517f08c379a0000000000000000000000000000000000000000000000000000000008152600401610d4d906150ac565b60405180910390fd5b610d6183838361225d565b505050565b6000806000838152602001908152602001600020600101549050919050565b600080601360009054906101000a900473ffffffffffffffffffffffffffffffffffffffff16610db484611a7f565b915091509250929050565b610dc982826124b9565b610dee8160016000858152602001908152602001600020611e0d90919063ffffffff16565b505050565b6000610dfe836112d5565b8210610e3f576040517f08c379a0000000000000000000000000000000000000000000000000000000008152600401610e3690614e2c565b60405180910390fd5b600860008473ffffffffffffffffffffffffffffffffffffffff1673ffffffffffffffffffffffffffffffffffffffff168152602001908152602001600020600083815260200190815260200160002054905092915050565b610ea282826124e2565b610ec7816001600085815260200190815260200160002061256590919063ffffffff16565b505050565b610ee783838360405180602001604052806000815250611afc565b505050565b60606000610ef9836112d5565b905060008167ffffffffffffffff811115610f3d577f4e487b7100000000000000000000000000000000000000000000000000000000600052604160045260246000fd5b604051908082528060200260200182016040528015610f6b5781602001602082028036833780820191505090505b50905060005b82811015610fdb57610f838582610df3565b828281518110610fbc577f4e487b7100000000000000000000000000000000000000000000000000000000600052603260045260246000fd5b6020026020010181815250508080610fd3906154dd565b915050610f71565b508092505050919050565b6000610ff0610cf9565b8210611031576040517f08c379a0000000000000000000000000000000000000000000000000000000008152600401611028906150ec565b60405180910390fd5b600a828154811061106b577f4e487b7100000000000000000000000000000000000000000000000000000000600052603260045260246000fd5b90600052602060002001549050919050565b61108561204a565b73ffffffffffffffffffffffffffffffffffffffff166110a3611452565b73ffffffffffffffffffffffffffffffffffffffff16146110f9576040517f08c379a00000000000000000000000000000000000000000000000000000000081526004016110f09061500c565b60405180910390fd5b61110d6000801b61110861204a565b6115d1565b61114c576040517f08c379a00000000000000000000000000000000000000000000000000000000081526004016111439061512c565b60405180910390fd5b8073ffffffffffffffffffffffffffffffffffffffff166108fc479081150290604051600060405180830381858888f19350505050158015611192573d6000803e3d6000fd5b5050565b6111aa6000801b6111a561204a565b6115d1565b6111e9576040517f08c379a00000000000000000000000000000000000000000000000000000000081526004016111e0906150cc565b60405180910390fd5b80600f90805190602001906111ff929190613a61565b5050565b60156020528060005260406000206000915054906101000a900460ff1681565b6000806004600084815260200190815260200160002060009054906101000a900473ffffffffffffffffffffffffffffffffffffffff169050600073ffffffffffffffffffffffffffffffffffffffff168173ffffffffffffffffffffffffffffffffffffffff1614156112cc576040517f08c379a00000000000000000000000000000000000000000000000000000000081526004016112c390614f8c565b60405180910390fd5b80915050919050565b60008073ffffffffffffffffffffffffffffffffffffffff168273ffffffffffffffffffffffffffffffffffffffff161415611346576040517f08c379a000000000000000000000000000000000000000000000000000000000815260040161133d90614f6c565b60405180910390fd5b600560008373ffffffffffffffffffffffffffffffffffffffff1673ffffffffffffffffffffffffffffffffffffffff168152602001908152602001600020549050919050565b61139561204a565b73ffffffffffffffffffffffffffffffffffffffff166113b3611452565b73ffffffffffffffffffffffffffffffffffffffff1614611409576040517f08c379a00000000000000000000000000000000000000000000000000000000081526004016114009061500c565b60405180910390fd5b6114136000612595565b565b60006014600083815260200190815260200160002060009054906101000a900473ffffffffffffffffffffffffffffffffffffffff169050919050565b6000600d60009054906101000a900473ffffffffffffffffffffffffffffffffffffffff16905090565b6114906000801b61148b61204a565b6115d1565b6114cf576040517f08c379a00000000000000000000000000000000000000000000000000000000081526004016114c6906150cc565b60405180910390fd5b81601360006101000a81548173ffffffffffffffffffffffffffffffffffffffff021916908373ffffffffffffffffffffffffffffffffffffffff16021790555080601360146101000a8154816bffffffffffffffffffffffff02191690836bffffffffffffffffffffffff1602179055505050565b600061156c826001600086815260200190815260200160002061265b90919063ffffffff16565b905092915050565b6115886000801b61158361204a565b6115d1565b6115c7576040517f08c379a00000000000000000000000000000000000000000000000000000000081526004016115be90614e0c565b60405180910390fd5b8060108190555050565b600080600084815260200190815260200160002060000160008373ffffffffffffffffffffffffffffffffffffffff1673ffffffffffffffffffffffffffffffffffffffff16815260200190815260200160002060009054906101000a900460ff16905092915050565b60606003805461164a906154ab565b80601f0160208091040260200160405190810160405280929190818152602001828054611676906154ab565b80156116c35780601f10611698576101008083540402835291602001916116c3565b820191906000526020600020905b8154815290600101906020018083116116a657829003601f168201915b5050505050905090565b600e8060000154905081565b6000601054905090565b6116eb611452565b73ffffffffffffffffffffffffffffffffffffffff163373ffffffffffffffffffffffffffffffffffffffff16146117c6578060105461172b919061531b565b341461176c576040517f08c379a00000000000000000000000000000000000000000000000000000000081526004016117639061508c565b60405180910390fd5b6011548161177a600e611e3d565b6117849190615294565b11156117c5576040517f08c379a00000000000000000000000000000000000000000000000000000000081526004016117bc90614e8c565b60405180910390fd5b5b60148110611809576040517f08c379a00000000000000000000000000000000000000000000000000000000081526004016118009061510c565b60405180910390fd5b60005b818110156118f3576001151560156000611826600e611e3d565b815260200190815260200160002060009054906101000a900460ff161515141561186757611854600e611de9565b818061185f906154dd565b9250506118e0565b61187a33611875600e611e3d565b612675565b3360146000611889600e611e3d565b815260200190815260200160002060006101000a81548173ffffffffffffffffffffffffffffffffffffffff021916908373ffffffffffffffffffffffffffffffffffffffff1602179055506118df600e611de9565b5b80806118eb906154dd565b91505061180c565b5050565b6000801b81565b61190661204a565b73ffffffffffffffffffffffffffffffffffffffff168273ffffffffffffffffffffffffffffffffffffffff161415611974576040517f08c379a000000000000000000000000000000000000000000000000000000000815260040161196b90614eec565b60405180910390fd5b806007600061198161204a565b73ffffffffffffffffffffffffffffffffffffffff1673ffffffffffffffffffffffffffffffffffffffff16815260200190815260200160002060008473ffffffffffffffffffffffffffffffffffffffff1673ffffffffffffffffffffffffffffffffffffffff16815260200190815260200160002060006101000a81548160ff0219169083151502179055508173ffffffffffffffffffffffffffffffffffffffff16611a2e61204a565b73ffffffffffffffffffffffffffffffffffffffff167f17307eab39ab6107e8899845ad3d59bd9653f200f220920489ca2b5937696c3183604051611a739190614d94565b60405180910390a35050565b6000601360149054906101000a90046bffffffffffffffffffffffff166bffffffffffffffffffffffff1661271083611ab891906152ea565b611ac2919061531b565b9050919050565b60146020528060005260406000206000915054906101000a900473ffffffffffffffffffffffffffffffffffffffff1681565b611b0d611b0761204a565b8361217f565b611b4c576040517f08c379a0000000000000000000000000000000000000000000000000000000008152600401611b43906150ac565b60405180910390fd5b611b5884848484612843565b50505050565b6060611b6982611fde565b611ba8576040517f08c379a0000000000000000000000000000000000000000000000000000000008152600401611b9f9061504c565b60405180910390fd5b6000611bb261289f565b90506000815111611bd25760405180602001604052806000815250611bfd565b80611bdc84612931565b604051602001611bed929190614c79565b6040516020818303038152906040525b915050919050565b6000611c2260016000848152602001908152602001600020612ade565b9050919050565b611c338282612af3565b611c58816001600085815260200190815260200160002061256590919063ffffffff16565b505050565b6000600760008473ffffffffffffffffffffffffffffffffffffffff1673ffffffffffffffffffffffffffffffffffffffff16815260200190815260200160002060008373ffffffffffffffffffffffffffffffffffffffff1673ffffffffffffffffffffffffffffffffffffffff16815260200190815260200160002060009054906101000a900460ff16905092915050565b611cf961204a565b73ffffffffffffffffffffffffffffffffffffffff16611d17611452565b73ffffffffffffffffffffffffffffffffffffffff1614611d6d576040517f08c379a0000000000000000000000000000000000000000000000000000000008152600401611d649061500c565b60405180910390fd5b600073ffffffffffffffffffffffffffffffffffffffff168173ffffffffffffffffffffffffffffffffffffffff161415611ddd576040517f08c379a0000000000000000000000000000000000000000000000000000000008152600401611dd490614e6c565b60405180910390fd5b611de681612595565b50565b6001816000016000828254019250508190555050565b611e098282612b1c565b5050565b6000611e35836000018373ffffffffffffffffffffffffffffffffffffffff1660001b612bfc565b905092915050565b600081600001549050919050565b611e56838383611f5f565b600073ffffffffffffffffffffffffffffffffffffffff168373ffffffffffffffffffffffffffffffffffffffff161415611e9957611e9481612c6c565b611ed8565b8173ffffffffffffffffffffffffffffffffffffffff168373ffffffffffffffffffffffffffffffffffffffff1614611ed757611ed68382612cb5565b5b5b600073ffffffffffffffffffffffffffffffffffffffff168273ffffffffffffffffffffffffffffffffffffffff161415611f1b57611f1681612e22565b611f5a565b8273ffffffffffffffffffffffffffffffffffffffff168273ffffffffffffffffffffffffffffffffffffffff1614611f5957611f588282612f65565b5b5b505050565b505050565b60007f780e9d63000000000000000000000000000000000000000000000000000000007bffffffffffffffffffffffffffffffffffffffffffffffffffffffff1916827bffffffffffffffffffffffffffffffffffffffffffffffffffffffff19161480611fd75750611fd682612fe4565b5b9050919050565b60008073ffffffffffffffffffffffffffffffffffffffff166004600084815260200190815260200160002060009054906101000a900473ffffffffffffffffffffffffffffffffffffffff1673ffffffffffffffffffffffffffffffffffffffff1614159050919050565b600033905090565b816006600083815260200190815260200160002060006101000a81548173ffffffffffffffffffffffffffffffffffffffff021916908373ffffffffffffffffffffffffffffffffffffffff160217905550808273ffffffffffffffffffffffffffffffffffffffff166120c583611223565b73ffffffffffffffffffffffffffffffffffffffff167f8c5be1e5ebec7d5bd14f71427d1e84f3dd0314c0f7b2291e5b200ac8c7c3b92560405160405180910390a45050565b61211482611fde565b612153576040517f08c379a000000000000000000000000000000000000000000000000000000000815260040161214a90614fac565b60405180910390fd5b80600c6000848152602001908152602001600020908051906020019061217a929190613a61565b505050565b600061218a82611fde565b6121c9576040517f08c379a00000000000000000000000000000000000000000000000000000000081526004016121c090614f2c565b60405180910390fd5b60006121d483611223565b90508073ffffffffffffffffffffffffffffffffffffffff168473ffffffffffffffffffffffffffffffffffffffff16148061224357508373ffffffffffffffffffffffffffffffffffffffff1661222b84610afb565b73ffffffffffffffffffffffffffffffffffffffff16145b8061225457506122538185611c5d565b5b91505092915050565b8273ffffffffffffffffffffffffffffffffffffffff1661227d82611223565b73ffffffffffffffffffffffffffffffffffffffff16146122d3576040517f08c379a00000000000000000000000000000000000000000000000000000000081526004016122ca9061502c565b60405180910390fd5b600073ffffffffffffffffffffffffffffffffffffffff168273ffffffffffffffffffffffffffffffffffffffff161415612343576040517f08c379a000000000000000000000000000000000000000000000000000000000815260040161233a90614ecc565b60405180910390fd5b61234e8383836130c6565b612359600082612052565b6001600560008573ffffffffffffffffffffffffffffffffffffffff1673ffffffffffffffffffffffffffffffffffffffff16815260200190815260200160002060008282546123a99190615375565b925050819055506001600560008473ffffffffffffffffffffffffffffffffffffffff1673ffffffffffffffffffffffffffffffffffffffff16815260200190815260200160002060008282546124009190615294565b92505081905550816004600083815260200190815260200160002060006101000a81548173ffffffffffffffffffffffffffffffffffffffff021916908373ffffffffffffffffffffffffffffffffffffffff160217905550808273ffffffffffffffffffffffffffffffffffffffff168473ffffffffffffffffffffffffffffffffffffffff167fddf252ad1be2c89b69c2b068fc378daa952ba7f163c4a11628f55a4df523b3ef60405160405180910390a4505050565b6124c282610d66565b6124d3816124ce61204a565b6130d6565b6124dd8383612b1c565b505050565b6124ea61204a565b73ffffffffffffffffffffffffffffffffffffffff168173ffffffffffffffffffffffffffffffffffffffff1614612557576040517f08c379a000000000000000000000000000000000000000000000000000000000815260040161254e9061514c565b60405180910390fd5b6125618282613173565b5050565b600061258d836000018373ffffffffffffffffffffffffffffffffffffffff1660001b613254565b905092915050565b6000600d60009054906101000a900473ffffffffffffffffffffffffffffffffffffffff16905081600d60006101000a81548173ffffffffffffffffffffffffffffffffffffffff021916908373ffffffffffffffffffffffffffffffffffffffff1602179055508173ffffffffffffffffffffffffffffffffffffffff168173ffffffffffffffffffffffffffffffffffffffff167f8be0079c531659141344cd1fd0a4f28419497f9722a3daafe3b4186f6b6457e060405160405180910390a35050565b600061266a83600001836133da565b60001c905092915050565b600073ffffffffffffffffffffffffffffffffffffffff168273ffffffffffffffffffffffffffffffffffffffff1614156126e5576040517f08c379a00000000000000000000000000000000000000000000000000000000081526004016126dc90614fcc565b60405180910390fd5b6126ee81611fde565b1561272e576040517f08c379a000000000000000000000000000000000000000000000000000000000815260040161272590614eac565b60405180910390fd5b61273a600083836130c6565b6001600560008473ffffffffffffffffffffffffffffffffffffffff1673ffffffffffffffffffffffffffffffffffffffff168152602001908152602001600020600082825461278a9190615294565b92505081905550816004600083815260200190815260200160002060006101000a81548173ffffffffffffffffffffffffffffffffffffffff021916908373ffffffffffffffffffffffffffffffffffffffff160217905550808273ffffffffffffffffffffffffffffffffffffffff16600073ffffffffffffffffffffffffffffffffffffffff167fddf252ad1be2c89b69c2b068fc378daa952ba7f163c4a11628f55a4df523b3ef60405160405180910390a45050565b61284e84848461225d565b61285a8484848461342b565b612899576040517f08c379a000000000000000000000000000000000000000000000000000000000815260040161289090614e4c565b60405180910390fd5b50505050565b6060600f80546128ae906154ab565b80601f01602080910402602001604051908101604052809291908181526020018280546128da906154ab565b80156129275780601f106128fc57610100808354040283529160200191612927565b820191906000526020600020905b81548152906001019060200180831161290a57829003601f168201915b5050505050905090565b60606000821415612979576040518060400160405280600181526020017f30000000000000000000000000000000000000000000000000000000000000008152509050612ad9565b600082905060005b600082146129ab578080612994906154dd565b915050600a826129a491906152ea565b9150612981565b60008167ffffffffffffffff8111156129ed577f4e487b7100000000000000000000000000000000000000000000000000000000600052604160045260246000fd5b6040519080825280601f01601f191660200182016040528015612a1f5781602001600182028036833780820191505090505b5090505b60008514612ad257600182612a389190615375565b9150600a85612a479190615526565b6030612a539190615294565b60f81b818381518110612a8f577f4e487b7100000000000000000000000000000000000000000000000000000000600052603260045260246000fd5b60200101907effffffffffffffffffffffffffffffffffffffffffffffffffffffffffffff1916908160001a905350600a85612acb91906152ea565b9450612a23565b8093505050505b919050565b6000612aec826000016135c2565b9050919050565b612afc82610d66565b612b0d81612b0861204a565b6130d6565b612b178383613173565b505050565b612b2682826115d1565b612bf857600160008084815260200190815260200160002060000160008373ffffffffffffffffffffffffffffffffffffffff1673ffffffffffffffffffffffffffffffffffffffff16815260200190815260200160002060006101000a81548160ff021916908315150217905550612b9d61204a565b73ffffffffffffffffffffffffffffffffffffffff168173ffffffffffffffffffffffffffffffffffffffff16837f2f8788117e7eff1d82e926ec794901d17c78024a50270940304540a733656f0d60405160405180910390a45b5050565b6000612c0883836135d3565b612c61578260000182908060018154018082558091505060019003906000526020600020016000909190919091505582600001805490508360010160008481526020019081526020016000208190555060019050612c66565b600090505b92915050565b600a80549050600b600083815260200190815260200160002081905550600a81908060018154018082558091505060019003906000526020600020016000909190919091505550565b60006001612cc2846112d5565b612ccc9190615375565b9050600060096000848152602001908152602001600020549050818114612db1576000600860008673ffffffffffffffffffffffffffffffffffffffff1673ffffffffffffffffffffffffffffffffffffffff168152602001908152602001600020600084815260200190815260200160002054905080600860008773ffffffffffffffffffffffffffffffffffffffff1673ffffffffffffffffffffffffffffffffffffffff168152602001908152602001600020600084815260200190815260200160002081905550816009600083815260200190815260200160002081905550505b6009600084815260200190815260200160002060009055600860008573ffffffffffffffffffffffffffffffffffffffff1673ffffffffffffffffffffffffffffffffffffffff16815260200190815260200160002060008381526020019081526020016000206000905550505050565b60006001600a80549050612e369190615375565b90506000600b60008481526020019081526020016000205490506000600a8381548110612e8c577f4e487b7100000000000000000000000000000000000000000000000000000000600052603260045260246000fd5b9060005260206000200154905080600a8381548110612ed4577f4e487b7100000000000000000000000000000000000000000000000000000000600052603260045260246000fd5b906000526020600020018190555081600b600083815260200190815260200160002081905550600b600085815260200190815260200160002060009055600a805480612f49577f4e487b7100000000000000000000000000000000000000000000000000000000600052603160045260246000fd5b6001900381819060005260206000200160009055905550505050565b6000612f70836112d5565b905081600860008573ffffffffffffffffffffffffffffffffffffffff1673ffffffffffffffffffffffffffffffffffffffff168152602001908152602001600020600083815260200190815260200160002081905550806009600084815260200190815260200160002081905550505050565b60007f80ac58cd000000000000000000000000000000000000000000000000000000007bffffffffffffffffffffffffffffffffffffffffffffffffffffffff1916827bffffffffffffffffffffffffffffffffffffffffffffffffffffffff191614806130af57507f5b5e139f000000000000000000000000000000000000000000000000000000007bffffffffffffffffffffffffffffffffffffffffffffffffffffffff1916827bffffffffffffffffffffffffffffffffffffffffffffffffffffffff1916145b806130bf57506130be826135f6565b5b9050919050565b6130d1838383611e4b565b505050565b6130e082826115d1565b61316f576131058173ffffffffffffffffffffffffffffffffffffffff166014613670565b6131138360001c6020613670565b604051602001613124929190614ca8565b6040516020818303038152906040526040517f08c379a00000000000000000000000000000000000000000000000000000000081526004016131669190614dca565b60405180910390fd5b5050565b61317d82826115d1565b1561325057600080600084815260200190815260200160002060000160008373ffffffffffffffffffffffffffffffffffffffff1673ffffffffffffffffffffffffffffffffffffffff16815260200190815260200160002060006101000a81548160ff0219169083151502179055506131f561204a565b73ffffffffffffffffffffffffffffffffffffffff168173ffffffffffffffffffffffffffffffffffffffff16837ff6391f5c32d9c69d2a47ea670b442974b53935d1edc7fd64eb21e047a839171b60405160405180910390a45b5050565b600080836001016000848152602001908152602001600020549050600081146133ce5760006001826132869190615375565b905060006001866000018054905061329e9190615375565b90508181146133595760008660000182815481106132e5577f4e487b7100000000000000000000000000000000000000000000000000000000600052603260045260246000fd5b906000526020600020015490508087600001848154811061332f577f4e487b7100000000000000000000000000000000000000000000000000000000600052603260045260246000fd5b90600052602060002001819055508387600101600083815260200190815260200160002081905550505b85600001805480613393577f4e487b7100000000000000000000000000000000000000000000000000000000600052603160045260246000fd5b6001900381819060005260206000200160009055905585600101600086815260200190815260200160002060009055600193505050506133d4565b60009150505b92915050565b6000826000018281548110613418577f4e487b7100000000000000000000000000000000000000000000000000000000600052603260045260246000fd5b9060005260206000200154905092915050565b600061344c8473ffffffffffffffffffffffffffffffffffffffff1661396a565b156135b5578373ffffffffffffffffffffffffffffffffffffffff1663150b7a0261347561204a565b8786866040518563ffffffff1660e01b81526004016134979493929190614cfd565b602060405180830381600087803b1580156134b157600080fd5b505af19250505080156134e257506040513d601f19601f820116820180604052508101906134df9190613f14565b60015b613565573d8060008114613512576040519150601f19603f3d011682016040523d82523d6000602084013e613517565b606091505b5060008151141561355d576040517f08c379a000000000000000000000000000000000000000000000000000000000815260040161355490614e4c565b60405180910390fd5b805181602001fd5b63150b7a0260e01b7bffffffffffffffffffffffffffffffffffffffffffffffffffffffff1916817bffffffffffffffffffffffffffffffffffffffffffffffffffffffff1916149150506135ba565b600190505b949350505050565b600081600001805490509050919050565b600080836001016000848152602001908152602001600020541415905092915050565b60007f5a05180f000000000000000000000000000000000000000000000000000000007bffffffffffffffffffffffffffffffffffffffffffffffffffffffff1916827bffffffffffffffffffffffffffffffffffffffffffffffffffffffff1916148061366957506136688261397d565b5b9050919050565b606060006002836002613683919061531b565b61368d9190615294565b67ffffffffffffffff8111156136cc577f4e487b7100000000000000000000000000000000000000000000000000000000600052604160045260246000fd5b6040519080825280601f01601f1916602001820160405280156136fe5781602001600182028036833780820191505090505b5090507f30000000000000000000000000000000000000000000000000000000000000008160008151811061375c577f4e487b7100000000000000000000000000000000000000000000000000000000600052603260045260246000fd5b60200101907effffffffffffffffffffffffffffffffffffffffffffffffffffffffffffff1916908160001a9053507f7800000000000000000000000000000000000000000000000000000000000000816001815181106137e6577f4e487b7100000000000000000000000000000000000000000000000000000000600052603260045260246000fd5b60200101907effffffffffffffffffffffffffffffffffffffffffffffffffffffffffffff1916908160001a90535060006001846002613826919061531b565b6138309190615294565b90505b600181111561391c577f3031323334353637383961626364656600000000000000000000000000000000600f861660108110613898577f4e487b7100000000000000000000000000000000000000000000000000000000600052603260045260246000fd5b1a60f81b8282815181106138d5577f4e487b7100000000000000000000000000000000000000000000000000000000600052603260045260246000fd5b60200101907effffffffffffffffffffffffffffffffffffffffffffffffffffffffffffff1916908160001a905350600485901c94508061391590615481565b9050613833565b5060008414613960576040517f08c379a000000000000000000000000000000000000000000000000000000000815260040161395790614dec565b60405180910390fd5b8091505092915050565b600080823b905060008111915050919050565b60007f7965db0b000000000000000000000000000000000000000000000000000000007bffffffffffffffffffffffffffffffffffffffffffffffffffffffff1916827bffffffffffffffffffffffffffffffffffffffffffffffffffffffff191614806139f057506139ef826139f7565b5b9050919050565b60007f01ffc9a7000000000000000000000000000000000000000000000000000000007bffffffffffffffffffffffffffffffffffffffffffffffffffffffff1916827bffffffffffffffffffffffffffffffffffffffffffffffffffffffff1916149050919050565b828054613a6d906154ab565b90600052602060002090601f016020900481019282613a8f5760008555613ad6565b82601f10613aa857805160ff1916838001178555613ad6565b82800160010185558215613ad6579182015b82811115613ad5578251825591602001919060010190613aba565b5b509050613ae39190613ae7565b5090565b5b80821115613b00576000816000905550600101613ae8565b5090565b6000613b17613b12846151b8565b615187565b905082815260208101848484011115613b2f57600080fd5b613b3a84828561543f565b509392505050565b6000613b55613b50846151e8565b615187565b905082815260208101848484011115613b6d57600080fd5b613b7884828561543f565b509392505050565b600081359050613b8f81615624565b92915050565b600081359050613ba48161563b565b92915050565b600081359050613bb981615652565b92915050565b600081359050613bce81615669565b92915050565b600081519050613be381615669565b92915050565b600082601f830112613bfa57600080fd5b8135613c0a848260208601613b04565b91505092915050565b600082601f830112613c2457600080fd5b8135613c34848260208601613b42565b91505092915050565b600081359050613c4c81615680565b92915050565b600081359050613c6181615697565b92915050565b600060208284031215613c7957600080fd5b6000613c8784828501613b80565b91505092915050565b60008060408385031215613ca357600080fd5b6000613cb185828601613b80565b9250506020613cc285828601613b80565b9150509250929050565b600080600060608486031215613ce157600080fd5b6000613cef86828701613b80565b9350506020613d0086828701613b80565b9250506040613d1186828701613c3d565b9150509250925092565b60008060008060808587031215613d3157600080fd5b6000613d3f87828801613b80565b9450506020613d5087828801613b80565b9350506040613d6187828801613c3d565b925050606085013567ffffffffffffffff811115613d7e57600080fd5b613d8a87828801613be9565b91505092959194509250565b60008060408385031215613da957600080fd5b6000613db785828601613b80565b9250506020613dc885828601613b95565b9150509250929050565b60008060408385031215613de557600080fd5b6000613df385828601613b80565b9250506020613e0485828601613c3d565b9150509250929050565b60008060408385031215613e2157600080fd5b6000613e2f85828601613b80565b9250506020613e4085828601613c52565b9150509250929050565b600060208284031215613e5c57600080fd5b6000613e6a84828501613baa565b91505092915050565b60008060408385031215613e8657600080fd5b6000613e9485828601613baa565b9250506020613ea585828601613b80565b9150509250929050565b60008060408385031215613ec257600080fd5b6000613ed085828601613baa565b9250506020613ee185828601613c3d565b9150509250929050565b600060208284031215613efd57600080fd5b6000613f0b84828501613bbf565b91505092915050565b600060208284031215613f2657600080fd5b6000613f3484828501613bd4565b91505092915050565b600060208284031215613f4f57600080fd5b600082013567ffffffffffffffff811115613f6957600080fd5b613f7584828501613c13565b91505092915050565b600060208284031215613f9057600080fd5b6000613f9e84828501613c3d565b91505092915050565b60008060408385031215613fba57600080fd5b6000613fc885828601613c3d565b925050602083013567ffffffffffffffff811115613fe557600080fd5b613ff185828601613c13565b9150509250929050565b6000806040838503121561400e57600080fd5b600061401c85828601613c3d565b925050602061402d85828601613c3d565b9150509250929050565b60006140438383614c5b565b60208301905092915050565b614058816153a9565b82525050565b600061406982615228565b6140738185615256565b935061407e83615218565b8060005b838110156140af5781516140968882614037565b97506140a183615249565b925050600181019050614082565b5085935050505092915050565b6140c5816153bb565b82525050565b6140d4816153c7565b82525050565b60006140e582615233565b6140ef8185615267565b93506140ff81856020860161544e565b61410881615613565b840191505092915050565b600061411e8261523e565b6141288185615278565b935061413881856020860161544e565b61414181615613565b840191505092915050565b60006141578261523e565b6141618185615289565b935061417181856020860161544e565b80840191505092915050565b600061418a602083615278565b91507f537472696e67733a20686578206c656e67746820696e73756666696369656e746000830152602082019050919050565b60006141ca602483615278565b91507f4d75737420686176652061646d696e20726f6c6520746f206368616e6765207060008301527f72696365000000000000000000000000000000000000000000000000000000006020830152604082019050919050565b6000614230602b83615278565b91507f455243373231456e756d657261626c653a206f776e657220696e646578206f7560008301527f74206f6620626f756e64730000000000000000000000000000000000000000006020830152604082019050919050565b6000614296603283615278565b91507f4552433732313a207472616e7366657220746f206e6f6e20455243373231526560008301527f63656976657220696d706c656d656e74657200000000000000000000000000006020830152604082019050919050565b60006142fc602683615278565b91507f4f776e61626c653a206e6577206f776e657220697320746865207a65726f206160008301527f64647265737300000000000000000000000000000000000000000000000000006020830152604082019050919050565b6000614362602b83615278565b91507f4e6f7420656e6f75676820746f6b656e73206c65667420746f206d696e74207460008301527f68697320616d6f756e742e0000000000000000000000000000000000000000006020830152604082019050919050565b60006143c8601c83615278565b91507f4552433732313a20746f6b656e20616c7265616479206d696e746564000000006000830152602082019050919050565b6000614408602483615278565b91507f4552433732313a207472616e7366657220746f20746865207a65726f2061646460008301527f72657373000000000000000000000000000000000000000000000000000000006020830152604082019050919050565b600061446e601983615278565b91507f4552433732313a20617070726f766520746f2063616c6c6572000000000000006000830152602082019050919050565b60006144ae602883615278565b91507f4d75737420686176652061646d696e20726f6c6520746f206368616e6765207460008301527f6f6b656e205552490000000000000000000000000000000000000000000000006020830152604082019050919050565b6000614514602c83615278565b91507f4552433732313a206f70657261746f7220717565727920666f72206e6f6e657860008301527f697374656e7420746f6b656e00000000000000000000000000000000000000006020830152604082019050919050565b600061457a603883615278565b91507f4552433732313a20617070726f76652063616c6c6572206973206e6f74206f7760008301527f6e6572206e6f7220617070726f76656420666f7220616c6c00000000000000006020830152604082019050919050565b60006145e0602a83615278565b91507f4552433732313a2062616c616e636520717565727920666f7220746865207a6560008301527f726f2061646472657373000000000000000000000000000000000000000000006020830152604082019050919050565b6000614646602983615278565b91507f4552433732313a206f776e657220717565727920666f72206e6f6e657869737460008301527f656e7420746f6b656e00000000000000000000000000000000000000000000006020830152604082019050919050565b60006146ac602e83615278565b91507f45524337323155524953746f726167653a2055524920736574206f66206e6f6e60008301527f6578697374656e7420746f6b656e0000000000000000000000000000000000006020830152604082019050919050565b6000614712602083615278565b91507f4552433732313a206d696e7420746f20746865207a65726f20616464726573736000830152602082019050919050565b6000614752602c83615278565b91507f4552433732313a20617070726f76656420717565727920666f72206e6f6e657860008301527f697374656e7420746f6b656e00000000000000000000000000000000000000006020830152604082019050919050565b60006147b8600583615289565b91507f2e6a736f6e0000000000000000000000000000000000000000000000000000006000830152600582019050919050565b60006147f8602083615278565b91507f4f776e61626c653a2063616c6c6572206973206e6f7420746865206f776e65726000830152602082019050919050565b6000614838602983615278565b91507f4552433732313a207472616e73666572206f6620746f6b656e2074686174206960008301527f73206e6f74206f776e00000000000000000000000000000000000000000000006020830152604082019050919050565b600061489e602f83615278565b91507f4552433732314d657461646174613a2055524920717565727920666f72206e6f60008301527f6e6578697374656e7420746f6b656e00000000000000000000000000000000006020830152604082019050919050565b6000614904602183615278565b91507f4552433732313a20617070726f76616c20746f2063757272656e74206f776e6560008301527f72000000000000000000000000000000000000000000000000000000000000006020830152604082019050919050565b600061496a602283615278565b91507f4e6f7420656e6f756768206176617820696e2077616c6c657420746f206d696e60008301527f742e0000000000000000000000000000000000000000000000000000000000006020830152604082019050919050565b60006149d0603183615278565b91507f4552433732313a207472616e736665722063616c6c6572206973206e6f74206f60008301527f776e6572206e6f7220617070726f7665640000000000000000000000000000006020830152604082019050919050565b6000614a36602783615278565b91507f4d75737420686176652061646d696e20726f6c6520746f206368616e6765206260008301527f61736520555249000000000000000000000000000000000000000000000000006020830152604082019050919050565b6000614a9c602c83615278565b91507f455243373231456e756d657261626c653a20676c6f62616c20696e646578206f60008301527f7574206f6620626f756e647300000000000000000000000000000000000000006020830152604082019050919050565b6000614b02601783615289565b91507f416363657373436f6e74726f6c3a206163636f756e74200000000000000000006000830152601782019050919050565b6000614b42601f83615278565b91507f4f6e6c792032302063616e206265206d696e74656420617420612074696d65006000830152602082019050919050565b6000614b82601183615289565b91507f206973206d697373696e6720726f6c65200000000000000000000000000000006000830152601182019050919050565b6000614bc2602083615278565b91507f4d75737420686176652061646d696e20726f6c6520746f2077697468647261776000830152602082019050919050565b6000614c02602f83615278565b91507f416363657373436f6e74726f6c3a2063616e206f6e6c792072656e6f756e636560008301527f20726f6c657320666f722073656c6600000000000000000000000000000000006020830152604082019050919050565b614c648161541d565b82525050565b614c738161541d565b82525050565b6000614c85828561414c565b9150614c91828461414c565b9150614c9c826147ab565b91508190509392505050565b6000614cb382614af5565b9150614cbf828561414c565b9150614cca82614b75565b9150614cd6828461414c565b91508190509392505050565b6000602082019050614cf7600083018461404f565b92915050565b6000608082019050614d12600083018761404f565b614d1f602083018661404f565b614d2c6040830185614c6a565b8181036060830152614d3e81846140da565b905095945050505050565b6000604082019050614d5e600083018561404f565b614d6b6020830184614c6a565b9392505050565b60006020820190508181036000830152614d8c818461405e565b905092915050565b6000602082019050614da960008301846140bc565b92915050565b6000602082019050614dc460008301846140cb565b92915050565b60006020820190508181036000830152614de48184614113565b905092915050565b60006020820190508181036000830152614e058161417d565b9050919050565b60006020820190508181036000830152614e25816141bd565b9050919050565b60006020820190508181036000830152614e4581614223565b9050919050565b60006020820190508181036000830152614e6581614289565b9050919050565b60006020820190508181036000830152614e85816142ef565b9050919050565b60006020820190508181036000830152614ea581614355565b9050919050565b60006020820190508181036000830152614ec5816143bb565b9050919050565b60006020820190508181036000830152614ee5816143fb565b9050919050565b60006020820190508181036000830152614f0581614461565b9050919050565b60006020820190508181036000830152614f25816144a1565b9050919050565b60006020820190508181036000830152614f4581614507565b9050919050565b60006020820190508181036000830152614f658161456d565b9050919050565b60006020820190508181036000830152614f85816145d3565b9050919050565b60006020820190508181036000830152614fa581614639565b9050919050565b60006020820190508181036000830152614fc58161469f565b9050919050565b60006020820190508181036000830152614fe581614705565b9050919050565b6000602082019050818103600083015261500581614745565b9050919050565b60006020820190508181036000830152615025816147eb565b9050919050565b600060208201905081810360008301526150458161482b565b9050919050565b6000602082019050818103600083015261506581614891565b9050919050565b60006020820190508181036000830152615085816148f7565b9050919050565b600060208201905081810360008301526150a58161495d565b9050919050565b600060208201905081810360008301526150c5816149c3565b9050919050565b600060208201905081810360008301526150e581614a29565b9050919050565b6000602082019050818103600083015261510581614a8f565b9050919050565b6000602082019050818103600083015261512581614b35565b9050919050565b6000602082019050818103600083015261514581614bb5565b9050919050565b6000602082019050818103600083015261516581614bf5565b9050919050565b60006020820190506151816000830184614c6a565b92915050565b6000604051905081810181811067ffffffffffffffff821117156151ae576151ad6155e4565b5b8060405250919050565b600067ffffffffffffffff8211156151d3576151d26155e4565b5b601f19601f8301169050602081019050919050565b600067ffffffffffffffff821115615203576152026155e4565b5b601f19601f8301169050602081019050919050565b6000819050602082019050919050565b600081519050919050565b600081519050919050565b600081519050919050565b6000602082019050919050565b600082825260208201905092915050565b600082825260208201905092915050565b600082825260208201905092915050565b600081905092915050565b600061529f8261541d565b91506152aa8361541d565b9250827fffffffffffffffffffffffffffffffffffffffffffffffffffffffffffffffff038211156152df576152de615557565b5b828201905092915050565b60006152f58261541d565b91506153008361541d565b9250826153105761530f615586565b5b828204905092915050565b60006153268261541d565b91506153318361541d565b9250817fffffffffffffffffffffffffffffffffffffffffffffffffffffffffffffffff048311821515161561536a57615369615557565b5b828202905092915050565b60006153808261541d565b915061538b8361541d565b92508282101561539e5761539d615557565b5b828203905092915050565b60006153b4826153fd565b9050919050565b60008115159050919050565b6000819050919050565b60007fffffffff0000000000000000000000000000000000000000000000000000000082169050919050565b600073ffffffffffffffffffffffffffffffffffffffff82169050919050565b6000819050919050565b60006bffffffffffffffffffffffff82169050919050565b82818337600083830152505050565b60005b8381101561546c578082015181840152602081019050615451565b8381111561547b576000848401525b50505050565b600061548c8261541d565b915060008214156154a05761549f615557565b5b600182039050919050565b600060028204905060018216806154c357607f821691505b602082108114156154d7576154d66155b5565b5b50919050565b60006154e88261541d565b91507fffffffffffffffffffffffffffffffffffffffffffffffffffffffffffffffff82141561551b5761551a615557565b5b600182019050919050565b60006155318261541d565b915061553c8361541d565b92508261554c5761554b615586565b5b828206905092915050565b7f4e487b7100000000000000000000000000000000000000000000000000000000600052601160045260246000fd5b7f4e487b7100000000000000000000000000000000000000000000000000000000600052601260045260246000fd5b7f4e487b7100000000000000000000000000000000000000000000000000000000600052602260045260246000fd5b7f4e487b7100000000000000000000000000000000000000000000000000000000600052604160045260246000fd5b6000601f19601f8301169050919050565b61562d816153a9565b811461563857600080fd5b50565b615644816153bb565b811461564f57600080fd5b50565b61565b816153c7565b811461566657600080fd5b50565b615672816153d1565b811461567d57600080fd5b50565b6156898161541d565b811461569457600080fd5b50565b6156a081615427565b81146156ab57600080fd5b5056fea2646970667358221220bf408bf375da4eb8563f42e5728be9c49feadf0ffc6fb7c7ee9283bcd01164d764736f6c63430008000033",
  "linkReferences": {},
  "deployedLinkReferences": {}
}